{
  "_format": "hh-sol-artifact-1",
  "contractName": "TokenVault",
  "sourceName": "contracts/ERC721TokenVault.sol",
  "abi": [
    {
      "inputs": [
        {
          "internalType": "address",
          "name": "_settings",
          "type": "address"
        }
      ],
      "stateMutability": "nonpayable",
      "type": "constructor"
    },
    {
      "anonymous": false,
      "inputs": [
        {
          "indexed": true,
          "internalType": "address",
          "name": "owner",
          "type": "address"
        },
        {
          "indexed": true,
          "internalType": "address",
          "name": "spender",
          "type": "address"
        },
        {
          "indexed": false,
          "internalType": "uint256",
          "name": "value",
          "type": "uint256"
        }
      ],
      "name": "Approval",
      "type": "event"
    },
    {
      "anonymous": false,
      "inputs": [
        {
          "indexed": true,
          "internalType": "address",
          "name": "buyer",
          "type": "address"
        },
        {
          "indexed": false,
          "internalType": "uint256",
          "name": "price",
          "type": "uint256"
        }
      ],
      "name": "Bid",
      "type": "event"
    },
    {
      "anonymous": false,
      "inputs": [
        {
          "indexed": true,
          "internalType": "address",
          "name": "owner",
          "type": "address"
        },
        {
          "indexed": false,
          "internalType": "uint256",
          "name": "shares",
          "type": "uint256"
        }
      ],
      "name": "Cash",
      "type": "event"
    },
    {
      "anonymous": false,
      "inputs": [
        {
          "indexed": false,
          "internalType": "uint256",
          "name": "fee",
          "type": "uint256"
        }
      ],
      "name": "FeeClaimed",
      "type": "event"
    },
    {
      "anonymous": false,
      "inputs": [
        {
          "indexed": true,
          "internalType": "address",
          "name": "user",
          "type": "address"
        },
        {
          "indexed": false,
          "internalType": "uint256",
          "name": "price",
          "type": "uint256"
        }
      ],
      "name": "PriceUpdate",
      "type": "event"
    },
    {
      "anonymous": false,
      "inputs": [
        {
          "indexed": true,
          "internalType": "address",
          "name": "redeemer",
          "type": "address"
        }
      ],
      "name": "Redeem",
      "type": "event"
    },
    {
      "anonymous": false,
      "inputs": [
        {
          "indexed": true,
          "internalType": "address",
          "name": "buyer",
          "type": "address"
        },
        {
          "indexed": false,
          "internalType": "uint256",
          "name": "price",
          "type": "uint256"
        }
      ],
      "name": "Start",
      "type": "event"
    },
    {
      "anonymous": false,
      "inputs": [
        {
          "indexed": true,
          "internalType": "address",
          "name": "from",
          "type": "address"
        },
        {
          "indexed": true,
          "internalType": "address",
          "name": "to",
          "type": "address"
        },
        {
          "indexed": false,
          "internalType": "uint256",
          "name": "value",
          "type": "uint256"
        }
      ],
      "name": "Transfer",
      "type": "event"
    },
    {
      "anonymous": false,
      "inputs": [
        {
          "indexed": false,
          "internalType": "uint256",
          "name": "length",
          "type": "uint256"
        }
      ],
      "name": "UpdateAuctionLength",
      "type": "event"
    },
    {
      "anonymous": false,
      "inputs": [
        {
          "indexed": false,
          "internalType": "uint256",
          "name": "fee",
          "type": "uint256"
        }
      ],
      "name": "UpdateCuratorFee",
      "type": "event"
    },
    {
      "anonymous": false,
      "inputs": [
        {
          "indexed": true,
          "internalType": "address",
          "name": "buyer",
          "type": "address"
        },
        {
          "indexed": false,
          "internalType": "uint256",
          "name": "price",
          "type": "uint256"
        }
      ],
      "name": "Won",
      "type": "event"
    },
    {
      "inputs": [
        {
          "internalType": "address",
          "name": "owner",
          "type": "address"
        },
        {
          "internalType": "address",
          "name": "spender",
          "type": "address"
        }
      ],
      "name": "allowance",
      "outputs": [
        {
          "internalType": "uint256",
          "name": "",
          "type": "uint256"
        }
      ],
      "stateMutability": "view",
      "type": "function"
    },
    {
      "inputs": [
        {
          "internalType": "address",
          "name": "spender",
          "type": "address"
        },
        {
          "internalType": "uint256",
          "name": "amount",
          "type": "uint256"
        }
      ],
      "name": "approve",
      "outputs": [
        {
          "internalType": "bool",
          "name": "",
          "type": "bool"
        }
      ],
      "stateMutability": "nonpayable",
      "type": "function"
    },
    {
      "inputs": [],
      "name": "auctionEnd",
      "outputs": [
        {
          "internalType": "uint256",
          "name": "",
          "type": "uint256"
        }
      ],
      "stateMutability": "view",
      "type": "function"
    },
    {
      "inputs": [],
      "name": "auctionLength",
      "outputs": [
        {
          "internalType": "uint256",
          "name": "",
          "type": "uint256"
        }
      ],
      "stateMutability": "view",
      "type": "function"
    },
    {
      "inputs": [],
      "name": "auctionState",
      "outputs": [
        {
          "internalType": "enum TokenVault.State",
          "name": "",
          "type": "uint8"
        }
      ],
      "stateMutability": "view",
      "type": "function"
    },
    {
      "inputs": [
        {
          "internalType": "address",
          "name": "account",
          "type": "address"
        }
      ],
      "name": "balanceOf",
      "outputs": [
        {
          "internalType": "uint256",
          "name": "",
          "type": "uint256"
        }
      ],
      "stateMutability": "view",
      "type": "function"
    },
    {
      "inputs": [],
      "name": "bid",
      "outputs": [],
      "stateMutability": "payable",
      "type": "function"
    },
    {
      "inputs": [],
      "name": "cash",
      "outputs": [],
      "stateMutability": "nonpayable",
      "type": "function"
    },
    {
      "inputs": [],
      "name": "claimFees",
      "outputs": [],
      "stateMutability": "nonpayable",
      "type": "function"
    },
    {
      "inputs": [],
      "name": "curator",
      "outputs": [
        {
          "internalType": "address",
          "name": "",
          "type": "address"
        }
      ],
      "stateMutability": "view",
      "type": "function"
    },
    {
      "inputs": [],
      "name": "decimals",
      "outputs": [
        {
          "internalType": "uint8",
          "name": "",
          "type": "uint8"
        }
      ],
      "stateMutability": "view",
      "type": "function"
    },
    {
      "inputs": [
        {
          "internalType": "address",
          "name": "spender",
          "type": "address"
        },
        {
          "internalType": "uint256",
          "name": "subtractedValue",
          "type": "uint256"
        }
      ],
      "name": "decreaseAllowance",
      "outputs": [
        {
          "internalType": "bool",
          "name": "",
          "type": "bool"
        }
      ],
      "stateMutability": "nonpayable",
      "type": "function"
    },
    {
      "inputs": [],
      "name": "end",
      "outputs": [],
      "stateMutability": "nonpayable",
      "type": "function"
    },
    {
      "inputs": [],
      "name": "fee",
      "outputs": [
        {
          "internalType": "uint256",
          "name": "",
          "type": "uint256"
        }
      ],
      "stateMutability": "view",
      "type": "function"
    },
    {
      "inputs": [],
      "name": "id",
      "outputs": [
        {
          "internalType": "uint256",
          "name": "",
          "type": "uint256"
        }
      ],
      "stateMutability": "view",
      "type": "function"
    },
    {
      "inputs": [
        {
          "internalType": "address",
          "name": "spender",
          "type": "address"
        },
        {
          "internalType": "uint256",
          "name": "addedValue",
          "type": "uint256"
        }
      ],
      "name": "increaseAllowance",
      "outputs": [
        {
          "internalType": "bool",
          "name": "",
          "type": "bool"
        }
      ],
      "stateMutability": "nonpayable",
      "type": "function"
    },
    {
      "inputs": [
        {
          "internalType": "address",
          "name": "_curator",
          "type": "address"
        },
        {
          "internalType": "address",
          "name": "_token",
          "type": "address"
        },
        {
          "internalType": "uint256",
          "name": "_id",
          "type": "uint256"
        },
        {
          "internalType": "uint256",
          "name": "_supply",
          "type": "uint256"
        },
        {
          "internalType": "uint256",
          "name": "_listPrice",
          "type": "uint256"
        },
        {
          "internalType": "uint256",
          "name": "_fee",
          "type": "uint256"
        },
        {
          "internalType": "string",
          "name": "_name",
          "type": "string"
        },
        {
          "internalType": "string",
          "name": "_symbol",
          "type": "string"
        }
      ],
      "name": "initialize",
      "outputs": [],
      "stateMutability": "nonpayable",
      "type": "function"
    },
    {
      "inputs": [
        {
          "internalType": "address",
          "name": "_curator",
          "type": "address"
        }
      ],
      "name": "kickCurator",
      "outputs": [],
      "stateMutability": "nonpayable",
      "type": "function"
    },
    {
      "inputs": [],
      "name": "lastClaimed",
      "outputs": [
        {
          "internalType": "uint256",
          "name": "",
          "type": "uint256"
        }
      ],
      "stateMutability": "view",
      "type": "function"
    },
    {
      "inputs": [],
      "name": "livePrice",
      "outputs": [
        {
          "internalType": "uint256",
          "name": "",
          "type": "uint256"
        }
      ],
      "stateMutability": "view",
      "type": "function"
    },
    {
      "inputs": [],
      "name": "name",
      "outputs": [
        {
          "internalType": "string",
          "name": "",
          "type": "string"
        }
      ],
      "stateMutability": "view",
      "type": "function"
    },
    {
      "inputs": [
        {
          "internalType": "address",
          "name": "",
          "type": "address"
        },
        {
          "internalType": "address",
          "name": "",
          "type": "address"
        },
        {
          "internalType": "uint256",
          "name": "",
          "type": "uint256"
        },
        {
          "internalType": "bytes",
          "name": "",
          "type": "bytes"
        }
      ],
      "name": "onERC721Received",
      "outputs": [
        {
          "internalType": "bytes4",
          "name": "",
          "type": "bytes4"
        }
      ],
      "stateMutability": "nonpayable",
      "type": "function"
    },
    {
      "inputs": [],
      "name": "redeem",
      "outputs": [],
      "stateMutability": "nonpayable",
      "type": "function"
    },
    {
      "inputs": [
        {
          "internalType": "address",
          "name": "_user",
          "type": "address"
        }
      ],
      "name": "removeReserve",
      "outputs": [],
      "stateMutability": "nonpayable",
      "type": "function"
    },
    {
      "inputs": [],
      "name": "reservePrice",
      "outputs": [
        {
          "internalType": "uint256",
          "name": "",
          "type": "uint256"
        }
      ],
      "stateMutability": "view",
      "type": "function"
    },
    {
      "inputs": [],
      "name": "reserveTotal",
      "outputs": [
        {
          "internalType": "uint256",
          "name": "",
          "type": "uint256"
        }
      ],
      "stateMutability": "view",
      "type": "function"
    },
    {
      "inputs": [],
      "name": "settings",
      "outputs": [
        {
          "internalType": "address",
          "name": "",
          "type": "address"
        }
      ],
      "stateMutability": "view",
      "type": "function"
    },
    {
      "inputs": [],
      "name": "start",
      "outputs": [],
      "stateMutability": "payable",
      "type": "function"
    },
    {
      "inputs": [],
      "name": "symbol",
      "outputs": [
        {
          "internalType": "string",
          "name": "",
          "type": "string"
        }
      ],
      "stateMutability": "view",
      "type": "function"
    },
    {
      "inputs": [],
      "name": "token",
      "outputs": [
        {
          "internalType": "address",
          "name": "",
          "type": "address"
        }
      ],
      "stateMutability": "view",
      "type": "function"
    },
    {
      "inputs": [],
      "name": "totalSupply",
      "outputs": [
        {
          "internalType": "uint256",
          "name": "",
          "type": "uint256"
        }
      ],
      "stateMutability": "view",
      "type": "function"
    },
    {
      "inputs": [
        {
          "internalType": "address",
          "name": "recipient",
          "type": "address"
        },
        {
          "internalType": "uint256",
          "name": "amount",
          "type": "uint256"
        }
      ],
      "name": "transfer",
      "outputs": [
        {
          "internalType": "bool",
          "name": "",
          "type": "bool"
        }
      ],
      "stateMutability": "nonpayable",
      "type": "function"
    },
    {
      "inputs": [
        {
          "internalType": "address",
          "name": "sender",
          "type": "address"
        },
        {
          "internalType": "address",
          "name": "recipient",
          "type": "address"
        },
        {
          "internalType": "uint256",
          "name": "amount",
          "type": "uint256"
        }
      ],
      "name": "transferFrom",
      "outputs": [
        {
          "internalType": "bool",
          "name": "",
          "type": "bool"
        }
      ],
      "stateMutability": "nonpayable",
      "type": "function"
    },
    {
      "inputs": [
        {
          "internalType": "uint256",
          "name": "_length",
          "type": "uint256"
        }
      ],
      "name": "updateAuctionLength",
      "outputs": [],
      "stateMutability": "nonpayable",
      "type": "function"
    },
    {
      "inputs": [
        {
          "internalType": "address",
          "name": "_curator",
          "type": "address"
        }
      ],
      "name": "updateCurator",
      "outputs": [],
      "stateMutability": "nonpayable",
      "type": "function"
    },
    {
      "inputs": [
        {
          "internalType": "uint256",
          "name": "_fee",
          "type": "uint256"
        }
      ],
      "name": "updateFee",
      "outputs": [],
      "stateMutability": "nonpayable",
      "type": "function"
    },
    {
      "inputs": [
        {
          "internalType": "uint256",
          "name": "_new",
          "type": "uint256"
        }
      ],
      "name": "updateUserPrice",
      "outputs": [],
      "stateMutability": "nonpayable",
      "type": "function"
    },
    {
      "inputs": [
        {
          "internalType": "address",
          "name": "",
          "type": "address"
        }
      ],
      "name": "userPrices",
      "outputs": [
        {
          "internalType": "uint256",
          "name": "",
          "type": "uint256"
        }
      ],
      "stateMutability": "view",
      "type": "function"
    },
    {
      "inputs": [],
      "name": "vaultClosed",
      "outputs": [
        {
          "internalType": "bool",
          "name": "",
          "type": "bool"
        }
      ],
      "stateMutability": "view",
      "type": "function"
    },
    {
      "inputs": [],
      "name": "votingTokens",
      "outputs": [
        {
          "internalType": "uint256",
          "name": "",
          "type": "uint256"
        }
      ],
      "stateMutability": "view",
      "type": "function"
    },
    {
      "inputs": [],
      "name": "weth",
      "outputs": [
        {
          "internalType": "address",
          "name": "",
          "type": "address"
        }
      ],
      "stateMutability": "view",
      "type": "function"
    },
    {
      "inputs": [],
      "name": "winning",
      "outputs": [
        {
          "internalType": "address payable",
          "name": "",
          "type": "address"
        }
      ],
      "stateMutability": "view",
      "type": "function"
    }
  ],
  "bytecode": "0x60a06040523480156200001157600080fd5b50604051620060b5380380620060b583398181016040528101906200003791906200008c565b8073ffffffffffffffffffffffffffffffffffffffff1660808173ffffffffffffffffffffffffffffffffffffffff1660601b815250505062000106565b6000815190506200008681620000ec565b92915050565b6000602082840312156200009f57600080fd5b6000620000af8482850162000075565b91505092915050565b6000620000c582620000cc565b9050919050565b600073ffffffffffffffffffffffffffffffffffffffff82169050919050565b620000f781620000b8565b81146200010357600080fd5b50565b60805160601c615f356200018060003960008181610bd101528181610f15015281816110f40152818161119e015281816117aa015281816118a901528181611a6d01528181611b6c01528181611da1015281816121d30152818161295701528181612c26015281816138f001526139940152615f356000f3fe6080604052600436106102515760003560e01c806380436fe011610139578063be040fb0116100b6578063dd62ed3e1161007a578063dd62ed3e14610866578063ddca3f43146108a3578063e06174e4146108ce578063e66f53b7146108f9578063efbe1c1c14610924578063fc0c546a1461093b57610251565b8063be040fb0146107c6578063be9a6555146107dd578063c91de649146107e7578063d294f09314610824578063db2e1eed1461083b57610251565b80639a4e6d34116100fd5780639a4e6d34146106cb578063a457c2d7146106f6578063a9059cbb14610733578063adc1b95614610770578063af640d0f1461079b57610251565b806380436fe01461060c578063853a1b90146106355780639012c4a81461066057806395d89b4114610689578063961be391146106b457610251565b8063313ce567116101d2578063626fb2f011610196578063626fb2f0146104fc5780636a775714146105255780636da84e6c1461054e57806370a08231146105795780637b5581ed146105b65780637fb45099146105e157610251565b8063313ce56714610413578063325c25a21461043e57806339509351146104695780633fc8cef3146104a65780635c9920fc146104d157610251565b80631998aeef116102195780631998aeef1461034f57806323b872dd146103595780632a24f46c146103965780632a44f120146103c15780632bf33bd9146103ea57610251565b806306fdde0314610256578063095ea7b3146102815780630c6a62dd146102be578063150b7a02146102e757806318160ddd14610324575b600080fd5b34801561026257600080fd5b5061026b610966565b6040516102789190614e79565b60405180910390f35b34801561028d57600080fd5b506102a860048036038101906102a3919061470e565b6109f8565b6040516102b59190614e0d565b60405180910390f35b3480156102ca57600080fd5b506102e560048036038101906102e091906144ab565b610a16565b005b3480156102f357600080fd5b5061030e600480360381019061030991906145b1565b610aea565b60405161031b9190614e28565b60405180910390f35b34801561033057600080fd5b50610339610afe565b60405161034691906152bb565b60405180910390f35b610357610b08565b005b34801561036557600080fd5b50610380600480360381019061037b9190614562565b610e15565b60405161038d9190614e0d565b60405180910390f35b3480156103a257600080fd5b506103ab610f0d565b6040516103b891906152bb565b60405180910390f35b3480156103cd57600080fd5b506103e860048036038101906103e391906144ab565b610f13565b005b3480156103f657600080fd5b50610411600480360381019061040c9190614773565b611062565b005b34801561041f57600080fd5b506104286112c0565b60405161043591906152d6565b60405180910390f35b34801561044a57600080fd5b506104536112c9565b60405161046091906152bb565b60405180910390f35b34801561047557600080fd5b50610490600480360381019061048b919061470e565b6112cf565b60405161049d9190614e0d565b60405180910390f35b3480156104b257600080fd5b506104bb61137b565b6040516104c89190614d40565b60405180910390f35b3480156104dd57600080fd5b506104e6611393565b6040516104f39190614e0d565b60405180910390f35b34801561050857600080fd5b50610523600480360381019061051e919061462c565b6113a6565b005b34801561053157600080fd5b5061054c60048036038101906105479190614773565b6115d9565b005b34801561055a57600080fd5b50610563611d37565b60405161057091906152bb565b60405180910390f35b34801561058557600080fd5b506105a0600480360381019061059b91906144ab565b611d3d565b6040516105ad91906152bb565b60405180910390f35b3480156105c257600080fd5b506105cb611d86565b6040516105d891906152bb565b60405180910390f35b3480156105ed57600080fd5b506105f6611d8c565b6040516106039190614e43565b60405180910390f35b34801561061857600080fd5b50610633600480360381019061062e91906144ab565b611d9f565b005b34801561064157600080fd5b5061064a6120d7565b6040516106579190614d5b565b60405180910390f35b34801561066c57600080fd5b5061068760048036038101906106829190614773565b6120fd565b005b34801561069557600080fd5b5061069e6122fe565b6040516106ab9190614e79565b60405180910390f35b3480156106c057600080fd5b506106c9612390565b005b3480156106d757600080fd5b506106e061252a565b6040516106ed91906152bb565b60405180910390f35b34801561070257600080fd5b5061071d6004803603810190610718919061470e565b612530565b60405161072a9190614e0d565b60405180910390f35b34801561073f57600080fd5b5061075a6004803603810190610755919061470e565b61261b565b6040516107679190614e0d565b60405180910390f35b34801561077c57600080fd5b50610785612639565b60405161079291906152bb565b60405180910390f35b3480156107a757600080fd5b506107b061263f565b6040516107bd91906152bb565b60405180910390f35b3480156107d257600080fd5b506107db612645565b005b6107e5612841565b005b3480156107f357600080fd5b5061080e600480360381019061080991906144ab565b612b4d565b60405161081b91906152bb565b60405180910390f35b34801561083057600080fd5b50610839612b65565b005b34801561084757600080fd5b50610850612b6f565b60405161085d91906152bb565b60405180910390f35b34801561087257600080fd5b5061088d60048036038101906108889190614526565b612b97565b60405161089a91906152bb565b60405180910390f35b3480156108af57600080fd5b506108b8612c1e565b6040516108c591906152bb565b60405180910390f35b3480156108da57600080fd5b506108e3612c24565b6040516108f09190614d40565b60405180910390f35b34801561090557600080fd5b5061090e612c48565b60405161091b9190614d40565b60405180910390f35b34801561093057600080fd5b50610939612c6e565b005b34801561094757600080fd5b50610950612ef7565b60405161095d9190614d40565b60405180910390f35b606060368054610975906155f6565b80601f01602080910402602001604051908101604052809291908181526020018280546109a1906155f6565b80156109ee5780601f106109c3576101008083540402835291602001916109ee565b820191906000526020600020905b8154815290600101906020018083116109d157829003601f168201915b5050505050905090565b6000610a0c610a05612f1d565b8484612f25565b6001905092915050565b609e60009054906101000a900473ffffffffffffffffffffffffffffffffffffffff1673ffffffffffffffffffffffffffffffffffffffff163373ffffffffffffffffffffffffffffffffffffffff1614610aa6576040517f08c379a0000000000000000000000000000000000000000000000000000000008152600401610a9d9061505b565b60405180910390fd5b80609e60006101000a81548173ffffffffffffffffffffffffffffffffffffffff021916908373ffffffffffffffffffffffffffffffffffffffff16021790555050565b600063150b7a0260e01b9050949350505050565b6000603554905090565b60016003811115610b42577f4e487b7100000000000000000000000000000000000000000000000000000000600052602160045260246000fd5b609d60149054906101000a900460ff166003811115610b8a577f4e487b7100000000000000000000000000000000000000000000000000000000600052602160045260246000fd5b14610bca576040517f08c379a0000000000000000000000000000000000000000000000000000000008152600401610bc190614f3b565b60405180910390fd5b60006103e87f000000000000000000000000000000000000000000000000000000000000000073ffffffffffffffffffffffffffffffffffffffff16637c513c0f6040518163ffffffff1660e01b8152600401602060405180830381600087803b158015610c3757600080fd5b505af1158015610c4b573d6000803e3d6000fd5b505050506040513d601f19601f82011682018060405250810190610c6f919061479c565b610c79919061539f565b905080609c54610c899190615426565b6103e834610c979190615426565b1015610cd8576040517f08c379a0000000000000000000000000000000000000000000000000000000008152600401610ccf906151db565b60405180910390fd5b6099544210610d1c576040517f08c379a0000000000000000000000000000000000000000000000000000000008152600401610d13906150db565b60405180910390fd5b61038442609954610d2d9190615480565b11610d4e5761038460996000828254610d46919061539f565b925050819055505b610d7c609d60009054906101000a900473ffffffffffffffffffffffffffffffffffffffff16609c546130f0565b34609c8190555033609d60006101000a81548173ffffffffffffffffffffffffffffffffffffffff021916908373ffffffffffffffffffffffffffffffffffffffff1602179055503373ffffffffffffffffffffffffffffffffffffffff167fe684a55f31b79eca403df938249029212a5925ec6be8012e099b45bc1019e5d234604051610e0a91906152bb565b60405180910390a250565b6000610e2284848461321a565b6000603460008673ffffffffffffffffffffffffffffffffffffffff1673ffffffffffffffffffffffffffffffffffffffff1681526020019081526020016000206000610e6d612f1d565b73ffffffffffffffffffffffffffffffffffffffff1673ffffffffffffffffffffffffffffffffffffffff16815260200190815260200160002054905082811015610eed576040517f08c379a0000000000000000000000000000000000000000000000000000000008152600401610ee4906150bb565b60405180910390fd5b610f0185610ef9612f1d565b858403612f25565b60019150509392505050565b60995481565b7f000000000000000000000000000000000000000000000000000000000000000073ffffffffffffffffffffffffffffffffffffffff16638da5cb5b6040518163ffffffff1660e01b815260040160206040518083038186803b158015610f7957600080fd5b505afa158015610f8d573d6000803e3d6000fd5b505050506040513d601f19601f82011682018060405250810190610fb191906144d4565b73ffffffffffffffffffffffffffffffffffffffff163373ffffffffffffffffffffffffffffffffffffffff161461101e576040517f08c379a000000000000000000000000000000000000000000000000000000000815260040161101590614fbb565b60405180910390fd5b80609e60006101000a81548173ffffffffffffffffffffffffffffffffffffffff021916908373ffffffffffffffffffffffffffffffffffffffff16021790555050565b609e60009054906101000a900473ffffffffffffffffffffffffffffffffffffffff1673ffffffffffffffffffffffffffffffffffffffff163373ffffffffffffffffffffffffffffffffffffffff16146110f2576040517f08c379a00000000000000000000000000000000000000000000000000000000081526004016110e99061505b565b60405180910390fd5b7f000000000000000000000000000000000000000000000000000000000000000073ffffffffffffffffffffffffffffffffffffffff1663a0b335e36040518163ffffffff1660e01b8152600401602060405180830381600087803b15801561115a57600080fd5b505af115801561116e573d6000803e3d6000fd5b505050506040513d601f19601f82011682018060405250810190611192919061479c565b811015801561124057507f000000000000000000000000000000000000000000000000000000000000000073ffffffffffffffffffffffffffffffffffffffff16630e519ef96040518163ffffffff1660e01b8152600401602060405180830381600087803b15801561120457600080fd5b505af1158015611218573d6000803e3d6000fd5b505050506040513d601f19601f8201168201806040525081019061123c919061479c565b8111155b61127f576040517f08c379a00000000000000000000000000000000000000000000000000000000081526004016112769061509b565b60405180910390fd5b80609a819055507f4ab86ae701798277aa378943b9dfd155d3b19703cd57be298908fadd32f7bf46816040516112b591906152bb565b60405180910390a150565b60006012905090565b609a5481565b60006113716112dc612f1d565b8484603460006112ea612f1d565b73ffffffffffffffffffffffffffffffffffffffff1673ffffffffffffffffffffffffffffffffffffffff16815260200190815260200160002060008873ffffffffffffffffffffffffffffffffffffffff1673ffffffffffffffffffffffffffffffffffffffff1681526020019081526020016000205461136c919061539f565b612f25565b6001905092915050565b73c02aaa39b223fe8d0a0e5c4f27ead9083c756cc281565b60a160009054906101000a900460ff1681565b600060019054906101000a900460ff16806113cc575060008054906101000a900460ff16155b61140b576040517f08c379a00000000000000000000000000000000000000000000000000000000081526004016114029061507b565b60405180910390fd5b60008060019054906101000a900460ff16159050801561145b576001600060016101000a81548160ff02191690831515021790555060016000806101000a81548160ff0219169083151502179055505b611465838361349e565b61146d61358b565b87609760006101000a81548173ffffffffffffffffffffffffffffffffffffffff021916908373ffffffffffffffffffffffffffffffffffffffff160217905550866098819055506203f480609a8190555088609e60006101000a81548173ffffffffffffffffffffffffffffffffffffffff021916908373ffffffffffffffffffffffffffffffffffffffff16021790555083609f819055504260a0819055506000609d60146101000a81548160ff0219169083600381111561155a577f4e487b7100000000000000000000000000000000000000000000000000000000600052602160045260246000fd5b02179055508460a360008b73ffffffffffffffffffffffffffffffffffffffff1673ffffffffffffffffffffffffffffffffffffffff168152602001908152602001600020819055506115ad898761366c565b80156115ce5760008060016101000a81548160ff0219169083151502179055505b505050505050505050565b60006003811115611613577f4e487b7100000000000000000000000000000000000000000000000000000000600052602160045260246000fd5b609d60149054906101000a900460ff16600381111561165b577f4e487b7100000000000000000000000000000000000000000000000000000000600052602160045260246000fd5b1461169b576040517f08c379a00000000000000000000000000000000000000000000000000000000081526004016116929061521b565b60405180910390fd5b600060a360003373ffffffffffffffffffffffffffffffffffffffff1673ffffffffffffffffffffffffffffffffffffffff16815260200190815260200160002054905080821415611722576040517f08c379a00000000000000000000000000000000000000000000000000000000081526004016117199061523b565b60405180910390fd5b600061172d33611d3d565b9050600060a2541415611758578060a281905550828161174d9190615426565b609b81905550611ca0565b60a2548114801561176a575060008214155b1561178657828161177b9190615426565b609b81905550611c9f565b60008214156119e657600060a254609b546117a191906153f5565b905060006103e87f000000000000000000000000000000000000000000000000000000000000000073ffffffffffffffffffffffffffffffffffffffff166309990a966040518163ffffffff1660e01b8152600401602060405180830381600087803b15801561181057600080fd5b505af1158015611824573d6000803e3d6000fd5b505050506040513d601f19601f82011682018060405250810190611848919061479c565b836118539190615426565b61185d91906153f5565b9050808510156118a2576040517f08c379a000000000000000000000000000000000000000000000000000000000815260040161189990614edb565b60405180910390fd5b60006103e87f000000000000000000000000000000000000000000000000000000000000000073ffffffffffffffffffffffffffffffffffffffff16635410bfc96040518163ffffffff1660e01b8152600401602060405180830381600087803b15801561190f57600080fd5b505af1158015611923573d6000803e3d6000fd5b505050506040513d601f19601f82011682018060405250810190611947919061479c565b846119529190615426565b61195c91906153f5565b9050808611156119a1576040517f08c379a0000000000000000000000000000000000000000000000000000000008152600401611998906151fb565b60405180910390fd5b8360a260008282546119b3919061539f565b9250508190555085846119c69190615426565b609b60008282546119d7919061539f565b92505081905550505050611c9e565b6000831415611a31578060a26000828254611a019190615480565b925050819055508181611a149190615426565b609b6000828254611a259190615480565b92505081905550611c9d565b60008160a254611a419190615480565b8284611a4d9190615426565b609b54611a5a9190615480565b611a6491906153f5565b905060006103e87f000000000000000000000000000000000000000000000000000000000000000073ffffffffffffffffffffffffffffffffffffffff166309990a966040518163ffffffff1660e01b8152600401602060405180830381600087803b158015611ad357600080fd5b505af1158015611ae7573d6000803e3d6000fd5b505050506040513d601f19601f82011682018060405250810190611b0b919061479c565b83611b169190615426565b611b2091906153f5565b905080851015611b65576040517f08c379a0000000000000000000000000000000000000000000000000000000008152600401611b5c90614edb565b60405180910390fd5b60006103e87f000000000000000000000000000000000000000000000000000000000000000073ffffffffffffffffffffffffffffffffffffffff16635410bfc96040518163ffffffff1660e01b8152600401602060405180830381600087803b158015611bd257600080fd5b505af1158015611be6573d6000803e3d6000fd5b505050506040513d601f19601f82011682018060405250810190611c0a919061479c565b84611c159190615426565b611c1f91906153f5565b905080861115611c64576040517f08c379a0000000000000000000000000000000000000000000000000000000008152600401611c5b906151fb565b60405180910390fd5b8484611c709190615426565b8685611c7c9190615426565b609b54611c89919061539f565b611c939190615480565b609b819055505050505b5b5b5b8260a360003373ffffffffffffffffffffffffffffffffffffffff1673ffffffffffffffffffffffffffffffffffffffff168152602001908152602001600020819055503373ffffffffffffffffffffffffffffffffffffffff167f64e6e7bd72b853c4e62fd6ceaca05a104700c70a4cb567c75c7f2242ba7f037c84604051611d2a91906152bb565b60405180910390a2505050565b609c5481565b6000603360008373ffffffffffffffffffffffffffffffffffffffff1673ffffffffffffffffffffffffffffffffffffffff168152602001908152602001600020549050919050565b609b5481565b609d60149054906101000a900460ff1681565b7f000000000000000000000000000000000000000000000000000000000000000073ffffffffffffffffffffffffffffffffffffffff16638da5cb5b6040518163ffffffff1660e01b815260040160206040518083038186803b158015611e0557600080fd5b505afa158015611e19573d6000803e3d6000fd5b505050506040513d601f19601f82011682018060405250810190611e3d91906144d4565b73ffffffffffffffffffffffffffffffffffffffff163373ffffffffffffffffffffffffffffffffffffffff1614611eaa576040517f08c379a0000000000000000000000000000000000000000000000000000000008152600401611ea19061515b565b60405180910390fd5b60006003811115611ee4577f4e487b7100000000000000000000000000000000000000000000000000000000600052602160045260246000fd5b609d60149054906101000a900460ff166003811115611f2c577f4e487b7100000000000000000000000000000000000000000000000000000000600052602160045260246000fd5b14611f6c576040517f08c379a0000000000000000000000000000000000000000000000000000000008152600401611f639061521b565b60405180910390fd5b600060a360008373ffffffffffffffffffffffffffffffffffffffff1673ffffffffffffffffffffffffffffffffffffffff1681526020019081526020016000205490508060001415611ff4576040517f08c379a0000000000000000000000000000000000000000000000000000000008152600401611feb9061523b565b60405180910390fd5b6000611fff83611d3d565b90508060a260008282546120139190615480565b9250508190555081816120269190615426565b609b60008282546120379190615480565b92505081905550600060a360008573ffffffffffffffffffffffffffffffffffffffff1673ffffffffffffffffffffffffffffffffffffffff168152602001908152602001600020819055508273ffffffffffffffffffffffffffffffffffffffff167f64e6e7bd72b853c4e62fd6ceaca05a104700c70a4cb567c75c7f2242ba7f037c60006040516120ca9190614e5e565b60405180910390a2505050565b609d60009054906101000a900473ffffffffffffffffffffffffffffffffffffffff1681565b609e60009054906101000a900473ffffffffffffffffffffffffffffffffffffffff1673ffffffffffffffffffffffffffffffffffffffff163373ffffffffffffffffffffffffffffffffffffffff161461218d576040517f08c379a00000000000000000000000000000000000000000000000000000000081526004016121849061505b565b60405180910390fd5b609f5481106121d1576040517f08c379a00000000000000000000000000000000000000000000000000000000081526004016121c890614f7b565b60405180910390fd5b7f000000000000000000000000000000000000000000000000000000000000000073ffffffffffffffffffffffffffffffffffffffff16638a364bc16040518163ffffffff1660e01b8152600401602060405180830381600087803b15801561223957600080fd5b505af115801561224d573d6000803e3d6000fd5b505050506040513d601f19601f82011682018060405250810190612271919061479c565b8111156122b3576040517f08c379a00000000000000000000000000000000000000000000000000000000081526004016122aa906150fb565b60405180910390fd5b6122bb6137cd565b80609f819055507f2d1dae59a9e9ec0bc2ab19d45b7d10c8c55304fa08b40a7998e9f67f03223d04609f546040516122f391906152bb565b60405180910390a150565b60606037805461230d906155f6565b80601f0160208091040260200160405190810160405280929190818152602001828054612339906155f6565b80156123865780601f1061235b57610100808354040283529160200191612386565b820191906000526020600020905b81548152906001019060200180831161236957829003601f168201915b5050505050905090565b600260038111156123ca577f4e487b7100000000000000000000000000000000000000000000000000000000600052602160045260246000fd5b609d60149054906101000a900460ff166003811115612412577f4e487b7100000000000000000000000000000000000000000000000000000000600052602160045260246000fd5b14612452576040517f08c379a00000000000000000000000000000000000000000000000000000000081526004016124499061529b565b60405180910390fd5b600061245d33611d3d565b9050600081116124a2576040517f08c379a000000000000000000000000000000000000000000000000000000000815260040161249990614f5b565b60405180910390fd5b60006124ac610afe565b47836124b89190615426565b6124c291906153f5565b90506124ce3383613bb8565b6124d833826130f0565b3373ffffffffffffffffffffffffffffffffffffffff167f730831a1e4aa2d187ddd8e03d7beeac760a3927da5f112d645e0f8df7494b3678260405161251e91906152bb565b60405180910390a25050565b60a25481565b6000806034600061253f612f1d565b73ffffffffffffffffffffffffffffffffffffffff1673ffffffffffffffffffffffffffffffffffffffff16815260200190815260200160002060008573ffffffffffffffffffffffffffffffffffffffff1673ffffffffffffffffffffffffffffffffffffffff168152602001908152602001600020549050828110156125fc576040517f08c379a00000000000000000000000000000000000000000000000000000000081526004016125f39061525b565b60405180910390fd5b612610612607612f1d565b85858403612f25565b600191505092915050565b600061262f612628612f1d565b848461321a565b6001905092915050565b60a05481565b60985481565b6000600381111561267f577f4e487b7100000000000000000000000000000000000000000000000000000000600052602160045260246000fd5b609d60149054906101000a900460ff1660038111156126c7577f4e487b7100000000000000000000000000000000000000000000000000000000600052602160045260246000fd5b14612707576040517f08c379a00000000000000000000000000000000000000000000000000000000081526004016126fe90614f9b565b60405180910390fd5b61271833612713610afe565b613bb8565b609760009054906101000a900473ffffffffffffffffffffffffffffffffffffffff1673ffffffffffffffffffffffffffffffffffffffff166323b872dd30336098546040518463ffffffff1660e01b815260040161277993929190614dad565b600060405180830381600087803b15801561279357600080fd5b505af11580156127a7573d6000803e3d6000fd5b505050506003609d60146101000a81548160ff021916908360038111156127f7577f4e487b7100000000000000000000000000000000000000000000000000000000600052602160045260246000fd5b02179055503373ffffffffffffffffffffffffffffffffffffffff167fd1b5ea7fe0f1c2fa09d49c2aa9b2200664ba57a734f1d95481d95b7f99af991c60405160405180910390a2565b6000600381111561287b577f4e487b7100000000000000000000000000000000000000000000000000000000600052602160045260246000fd5b609d60149054906101000a900460ff1660038111156128c3577f4e487b7100000000000000000000000000000000000000000000000000000000600052602160045260246000fd5b14612903576040517f08c379a00000000000000000000000000000000000000000000000000000000081526004016128fa90614ebb565b60405180910390fd5b61290b612b6f565b34101561294d576040517f08c379a000000000000000000000000000000000000000000000000000000000815260040161294490614ffb565b60405180910390fd5b612955610afe565b7f000000000000000000000000000000000000000000000000000000000000000073ffffffffffffffffffffffffffffffffffffffff166332977c736040518163ffffffff1660e01b8152600401602060405180830381600087803b1580156129bd57600080fd5b505af11580156129d1573d6000803e3d6000fd5b505050506040513d601f19601f820116820180604052508101906129f5919061479c565b6129ff9190615426565b6103e860a254612a0f9190615426565b1015612a50576040517f08c379a0000000000000000000000000000000000000000000000000000000008152600401612a479061503b565b60405180910390fd5b609a5442612a5e919061539f565b6099819055506001609d60146101000a81548160ff02191690836003811115612ab0577f4e487b7100000000000000000000000000000000000000000000000000000000600052602160045260246000fd5b021790555034609c8190555033609d60006101000a81548173ffffffffffffffffffffffffffffffffffffffff021916908373ffffffffffffffffffffffffffffffffffffffff1602179055503373ffffffffffffffffffffffffffffffffffffffff167fcfb9c5312b25ec7b809d61e638df25f749eae5d5c25399e1c93d1d319bfd582134604051612b4391906152bb565b60405180910390a2565b60a36020528060005260406000206000915090505481565b612b6d6137cd565b565b60008060a25414612b8f5760a254609b54612b8a91906153f5565b612b92565b60005b905090565b6000603460008473ffffffffffffffffffffffffffffffffffffffff1673ffffffffffffffffffffffffffffffffffffffff16815260200190815260200160002060008373ffffffffffffffffffffffffffffffffffffffff1673ffffffffffffffffffffffffffffffffffffffff16815260200190815260200160002054905092915050565b609f5481565b7f000000000000000000000000000000000000000000000000000000000000000081565b609e60009054906101000a900473ffffffffffffffffffffffffffffffffffffffff1681565b60016003811115612ca8577f4e487b7100000000000000000000000000000000000000000000000000000000600052602160045260246000fd5b609d60149054906101000a900460ff166003811115612cf0577f4e487b7100000000000000000000000000000000000000000000000000000000600052602160045260246000fd5b14612d30576040517f08c379a0000000000000000000000000000000000000000000000000000000008152600401612d279061519b565b60405180910390fd5b609954421015612d75576040517f08c379a0000000000000000000000000000000000000000000000000000000008152600401612d6c9061501b565b60405180910390fd5b612d7d6137cd565b609760009054906101000a900473ffffffffffffffffffffffffffffffffffffffff1673ffffffffffffffffffffffffffffffffffffffff166323b872dd30609d60009054906101000a900473ffffffffffffffffffffffffffffffffffffffff166098546040518463ffffffff1660e01b8152600401612e0093929190614d76565b600060405180830381600087803b158015612e1a57600080fd5b505af1158015612e2e573d6000803e3d6000fd5b505050506002609d60146101000a81548160ff02191690836003811115612e7e577f4e487b7100000000000000000000000000000000000000000000000000000000600052602160045260246000fd5b0217905550609d60009054906101000a900473ffffffffffffffffffffffffffffffffffffffff1673ffffffffffffffffffffffffffffffffffffffff167f8b01f9dd0400d6a1e84369a5fb8f6033934856ffa8ebadd707dca302ab551695609c54604051612eed91906152bb565b60405180910390a2565b609760009054906101000a900473ffffffffffffffffffffffffffffffffffffffff1681565b600033905090565b600073ffffffffffffffffffffffffffffffffffffffff168373ffffffffffffffffffffffffffffffffffffffff161415612f95576040517f08c379a0000000000000000000000000000000000000000000000000000000008152600401612f8c9061517b565b60405180910390fd5b600073ffffffffffffffffffffffffffffffffffffffff168273ffffffffffffffffffffffffffffffffffffffff161415613005576040517f08c379a0000000000000000000000000000000000000000000000000000000008152600401612ffc90614f1b565b60405180910390fd5b80603460008573ffffffffffffffffffffffffffffffffffffffff1673ffffffffffffffffffffffffffffffffffffffff16815260200190815260200160002060008473ffffffffffffffffffffffffffffffffffffffff1673ffffffffffffffffffffffffffffffffffffffff168152602001908152602001600020819055508173ffffffffffffffffffffffffffffffffffffffff168373ffffffffffffffffffffffffffffffffffffffff167f8c5be1e5ebec7d5bd14f71427d1e84f3dd0314c0f7b2291e5b200ac8c7c3b925836040516130e391906152bb565b60405180910390a3505050565b6130fa8282613d91565b6132165773c02aaa39b223fe8d0a0e5c4f27ead9083c756cc273ffffffffffffffffffffffffffffffffffffffff1663d0e30db0826040518263ffffffff1660e01b81526004016000604051808303818588803b15801561315a57600080fd5b505af115801561316e573d6000803e3d6000fd5b505050505073c02aaa39b223fe8d0a0e5c4f27ead9083c756cc273ffffffffffffffffffffffffffffffffffffffff1663a9059cbb83836040518363ffffffff1660e01b81526004016131c2929190614de4565b602060405180830381600087803b1580156131dc57600080fd5b505af11580156131f0573d6000803e3d6000fd5b505050506040513d601f19601f82011682018060405250810190613214919061474a565b505b5050565b600073ffffffffffffffffffffffffffffffffffffffff168373ffffffffffffffffffffffffffffffffffffffff16141561328a576040517f08c379a00000000000000000000000000000000000000000000000000000000081526004016132819061513b565b60405180910390fd5b600073ffffffffffffffffffffffffffffffffffffffff168273ffffffffffffffffffffffffffffffffffffffff1614156132fa576040517f08c379a00000000000000000000000000000000000000000000000000000000081526004016132f190614e9b565b60405180910390fd5b613305838383613e0d565b6000603360008573ffffffffffffffffffffffffffffffffffffffff1673ffffffffffffffffffffffffffffffffffffffff1681526020019081526020016000205490508181101561338c576040517f08c379a000000000000000000000000000000000000000000000000000000000815260040161338390614fdb565b60405180910390fd5b818103603360008673ffffffffffffffffffffffffffffffffffffffff1673ffffffffffffffffffffffffffffffffffffffff1681526020019081526020016000208190555081603360008573ffffffffffffffffffffffffffffffffffffffff1673ffffffffffffffffffffffffffffffffffffffff1681526020019081526020016000206000828254613421919061539f565b925050819055508273ffffffffffffffffffffffffffffffffffffffff168473ffffffffffffffffffffffffffffffffffffffff167fddf252ad1be2c89b69c2b068fc378daa952ba7f163c4a11628f55a4df523b3ef8460405161348591906152bb565b60405180910390a3613498848484613ffa565b50505050565b600060019054906101000a900460ff16806134c4575060008054906101000a900460ff16155b613503576040517f08c379a00000000000000000000000000000000000000000000000000000000081526004016134fa9061507b565b60405180910390fd5b60008060019054906101000a900460ff161590508015613553576001600060016101000a81548160ff02191690831515021790555060016000806101000a81548160ff0219169083151502179055505b61355b613fff565b61356583836140d8565b80156135865760008060016101000a81548160ff0219169083151502179055505b505050565b600060019054906101000a900460ff16806135b1575060008054906101000a900460ff16155b6135f0576040517f08c379a00000000000000000000000000000000000000000000000000000000081526004016135e79061507b565b60405180910390fd5b60008060019054906101000a900460ff161590508015613640576001600060016101000a81548160ff02191690831515021790555060016000806101000a81548160ff0219169083151502179055505b6136486141e1565b80156136695760008060016101000a81548160ff0219169083151502179055505b50565b600073ffffffffffffffffffffffffffffffffffffffff168273ffffffffffffffffffffffffffffffffffffffff1614156136dc576040517f08c379a00000000000000000000000000000000000000000000000000000000081526004016136d39061527b565b60405180910390fd5b6136e860008383613e0d565b80603560008282546136fa919061539f565b9250508190555080603360008473ffffffffffffffffffffffffffffffffffffffff1673ffffffffffffffffffffffffffffffffffffffff1681526020019081526020016000206000828254613750919061539f565b925050819055508173ffffffffffffffffffffffffffffffffffffffff16600073ffffffffffffffffffffffffffffffffffffffff167fddf252ad1be2c89b69c2b068fc378daa952ba7f163c4a11628f55a4df523b3ef836040516137b591906152bb565b60405180910390a36137c960008383613ffa565b5050565b60026003811115613807577f4e487b7100000000000000000000000000000000000000000000000000000000600052602160045260246000fd5b609d60149054906101000a900460ff16600381111561384f577f4e487b7100000000000000000000000000000000000000000000000000000000600052602160045260246000fd5b1415613890576040517f08c379a0000000000000000000000000000000000000000000000000000000008152600401613887906151bb565b60405180910390fd5b60006103e861389d610afe565b609f546138aa9190615426565b6138b491906153f5565b905060006301e13380826138c891906153f5565b9050600060a054426138da9190615480565b9050600082826138ea9190615426565b905060007f000000000000000000000000000000000000000000000000000000000000000073ffffffffffffffffffffffffffffffffffffffff1663b3f006746040518163ffffffff1660e01b8152600401602060405180830381600087803b15801561395657600080fd5b505af115801561396a573d6000803e3d6000fd5b505050506040513d601f19601f8201168201806040525081019061398e91906144fd565b905060007f000000000000000000000000000000000000000000000000000000000000000073ffffffffffffffffffffffffffffffffffffffff16630ea90a126040518163ffffffff1660e01b8152600401602060405180830381600087803b1580156139fa57600080fd5b505af1158015613a0e573d6000803e3d6000fd5b505050506040513d601f19601f82011682018060405250810190613a32919061479c565b90506103e8613a3f610afe565b82613a4a9190615426565b613a5491906153f5565b95506301e1338086613a6691906153f5565b945060008585613a769190615426565b90504260a081905550600073ffffffffffffffffffffffffffffffffffffffff16609e60009054906101000a900473ffffffffffffffffffffffffffffffffffffffff1673ffffffffffffffffffffffffffffffffffffffff1614613b3957613b01609e60009054906101000a900473ffffffffffffffffffffffffffffffffffffffff168561366c565b7f62b10e3ff3d45b5ff546e740b893897facb1680285f989a64ae932d62c5388e184604051613b3091906152bb565b60405180910390a15b600073ffffffffffffffffffffffffffffffffffffffff168373ffffffffffffffffffffffffffffffffffffffff1614613baf57613b77838261366c565b7f62b10e3ff3d45b5ff546e740b893897facb1680285f989a64ae932d62c5388e181604051613ba691906152bb565b60405180910390a15b50505050505050565b600073ffffffffffffffffffffffffffffffffffffffff168273ffffffffffffffffffffffffffffffffffffffff161415613c28576040517f08c379a0000000000000000000000000000000000000000000000000000000008152600401613c1f9061511b565b60405180910390fd5b613c3482600083613e0d565b6000603360008473ffffffffffffffffffffffffffffffffffffffff1673ffffffffffffffffffffffffffffffffffffffff16815260200190815260200160002054905081811015613cbb576040517f08c379a0000000000000000000000000000000000000000000000000000000008152600401613cb290614efb565b60405180910390fd5b818103603360008573ffffffffffffffffffffffffffffffffffffffff1673ffffffffffffffffffffffffffffffffffffffff168152602001908152602001600020819055508160356000828254613d139190615480565b92505081905550600073ffffffffffffffffffffffffffffffffffffffff168373ffffffffffffffffffffffffffffffffffffffff167fddf252ad1be2c89b69c2b068fc378daa952ba7f163c4a11628f55a4df523b3ef84604051613d7891906152bb565b60405180910390a3613d8c83600084613ffa565b505050565b6000808373ffffffffffffffffffffffffffffffffffffffff168361753090604051613dbc90614d2b565b600060405180830381858888f193505050503d8060008114613dfa576040519150601f19603f3d011682016040523d82523d6000602084013e613dff565b606091505b505090508091505092915050565b60006003811115613e47577f4e487b7100000000000000000000000000000000000000000000000000000000600052602160045260246000fd5b609d60149054906101000a900460ff166003811115613e8f577f4e487b7100000000000000000000000000000000000000000000000000000000600052602160045260246000fd5b1415613ff557600060a360008573ffffffffffffffffffffffffffffffffffffffff1673ffffffffffffffffffffffffffffffffffffffff168152602001908152602001600020549050600060a360008573ffffffffffffffffffffffffffffffffffffffff1673ffffffffffffffffffffffffffffffffffffffff168152602001908152602001600020549050818114613ff2576000811415613f6f578260a26000828254613f3f9190615480565b925050819055508183613f529190615426565b609b6000828254613f639190615480565b92505081905550613ff1565b6000821415613fba578260a26000828254613f8a919061539f565b925050819055508083613f9d9190615426565b609b6000828254613fae919061539f565b92505081905550613ff0565b8183613fc69190615426565b8184613fd29190615426565b609b54613fdf919061539f565b613fe99190615480565b609b819055505b5b5b50505b505050565b505050565b600060019054906101000a900460ff1680614025575060008054906101000a900460ff16155b614064576040517f08c379a000000000000000000000000000000000000000000000000000000000815260040161405b9061507b565b60405180910390fd5b60008060019054906101000a900460ff1615905080156140b4576001600060016101000a81548160ff02191690831515021790555060016000806101000a81548160ff0219169083151502179055505b80156140d55760008060016101000a81548160ff0219169083151502179055505b50565b600060019054906101000a900460ff16806140fe575060008054906101000a900460ff16155b61413d576040517f08c379a00000000000000000000000000000000000000000000000000000000081526004016141349061507b565b60405180910390fd5b60008060019054906101000a900460ff16159050801561418d576001600060016101000a81548160ff02191690831515021790555060016000806101000a81548160ff0219169083151502179055505b82603690805190602001906141a39291906142ba565b5081603790805190602001906141ba9291906142ba565b5080156141dc5760008060016101000a81548160ff0219169083151502179055505b505050565b600060019054906101000a900460ff1680614207575060008054906101000a900460ff16155b614246576040517f08c379a000000000000000000000000000000000000000000000000000000000815260040161423d9061507b565b60405180910390fd5b60008060019054906101000a900460ff161590508015614296576001600060016101000a81548160ff02191690831515021790555060016000806101000a81548160ff0219169083151502179055505b80156142b75760008060016101000a81548160ff0219169083151502179055505b50565b8280546142c6906155f6565b90600052602060002090601f0160209004810192826142e8576000855561432f565b82601f1061430157805160ff191683800117855561432f565b8280016001018555821561432f579182015b8281111561432e578251825591602001919060010190614313565b5b50905061433c9190614340565b5090565b5b80821115614359576000816000905550600101614341565b5090565b600061437061436b84615316565b6152f1565b90508281526020810184848401111561438857600080fd5b6143938482856155b4565b509392505050565b60006143ae6143a984615347565b6152f1565b9050828152602081018484840111156143c657600080fd5b6143d18482856155b4565b509392505050565b6000813590506143e881615ea3565b92915050565b6000815190506143fd81615ea3565b92915050565b60008151905061441281615eba565b92915050565b60008151905061442781615ed1565b92915050565b600082601f83011261443e57600080fd5b813561444e84826020860161435d565b91505092915050565b600082601f83011261446857600080fd5b813561447884826020860161439b565b91505092915050565b60008135905061449081615ee8565b92915050565b6000815190506144a581615ee8565b92915050565b6000602082840312156144bd57600080fd5b60006144cb848285016143d9565b91505092915050565b6000602082840312156144e657600080fd5b60006144f4848285016143ee565b91505092915050565b60006020828403121561450f57600080fd5b600061451d84828501614403565b91505092915050565b6000806040838503121561453957600080fd5b6000614547858286016143d9565b9250506020614558858286016143d9565b9150509250929050565b60008060006060848603121561457757600080fd5b6000614585868287016143d9565b9350506020614596868287016143d9565b92505060406145a786828701614481565b9150509250925092565b600080600080608085870312156145c757600080fd5b60006145d5878288016143d9565b94505060206145e6878288016143d9565b93505060406145f787828801614481565b925050606085013567ffffffffffffffff81111561461457600080fd5b6146208782880161442d565b91505092959194509250565b600080600080600080600080610100898b03121561464957600080fd5b60006146578b828c016143d9565b98505060206146688b828c016143d9565b97505060406146798b828c01614481565b965050606061468a8b828c01614481565b955050608061469b8b828c01614481565b94505060a06146ac8b828c01614481565b93505060c089013567ffffffffffffffff8111156146c957600080fd5b6146d58b828c01614457565b92505060e089013567ffffffffffffffff8111156146f257600080fd5b6146fe8b828c01614457565b9150509295985092959890939650565b6000806040838503121561472157600080fd5b600061472f858286016143d9565b925050602061474085828601614481565b9150509250929050565b60006020828403121561475c57600080fd5b600061476a84828501614418565b91505092915050565b60006020828403121561478557600080fd5b600061479384828501614481565b91505092915050565b6000602082840312156147ae57600080fd5b60006147bc84828501614496565b91505092915050565b6147ce8161555a565b82525050565b6147dd816154c6565b82525050565b6147ec816154b4565b82525050565b6147fb816154d8565b82525050565b61480a816154e4565b82525050565b6148198161556c565b82525050565b6148288161557e565b82525050565b600061483982615378565b614843818561538e565b93506148538185602086016155c3565b61485c81615744565b840191505092915050565b600061487460238361538e565b915061487f82615755565b604082019050919050565b600061489760178361538e565b91506148a2826157a4565b602082019050919050565b60006148ba601c8361538e565b91506148c5826157cd565b602082019050919050565b60006148dd60228361538e565b91506148e8826157f6565b604082019050919050565b600061490060228361538e565b915061490b82615845565b604082019050919050565b600061492360178361538e565b915061492e82615894565b602082019050919050565b6000614946601a8361538e565b9150614951826158bd565b602082019050919050565b600061496960128361538e565b9150614974826158e6565b602082019050919050565b600061498c60138361538e565b91506149978261590f565b602082019050919050565b60006149af600c8361538e565b91506149ba82615938565b602082019050919050565b60006149d260268361538e565b91506149dd82615961565b604082019050919050565b60006149f560118361538e565b9150614a00826159b0565b602082019050919050565b6000614a1860108361538e565b9150614a23826159d9565b602082019050919050565b6000614a3b60178361538e565b9150614a4682615a02565b602082019050919050565b6000614a5e60128361538e565b9150614a6982615a2b565b602082019050919050565b6000614a81602e8361538e565b9150614a8c82615a54565b604082019050919050565b6000614aa4601d8361538e565b9150614aaf82615aa3565b602082019050919050565b6000614ac760288361538e565b9150614ad282615acc565b604082019050919050565b6000614aea60118361538e565b9150614af582615b1b565b602082019050919050565b6000614b0d60248361538e565b9150614b1882615b44565b604082019050919050565b6000614b3060218361538e565b9150614b3b82615b93565b604082019050919050565b6000614b5360258361538e565b9150614b5e82615be2565b604082019050919050565b6000614b76600e8361538e565b9150614b8182615c31565b602082019050919050565b6000614b99600083615383565b9150614ba482615c5a565b600082019050919050565b6000614bbc60248361538e565b9150614bc782615c5d565b604082019050919050565b6000614bdf601c8361538e565b9150614bea82615cac565b602082019050919050565b6000614c0260258361538e565b9150614c0d82615cd5565b604082019050919050565b6000614c25600f8361538e565b9150614c3082615d24565b602082019050919050565b6000614c48601d8361538e565b9150614c5382615d4d565b602082019050919050565b6000614c6b60278361538e565b9150614c7682615d76565b604082019050919050565b6000614c8e60148361538e565b9150614c9982615dc5565b602082019050919050565b6000614cb160258361538e565b9150614cbc82615dee565b604082019050919050565b6000614cd4601f8361538e565b9150614cdf82615e3d565b602082019050919050565b6000614cf760198361538e565b9150614d0282615e66565b602082019050919050565b614d1681615543565b82525050565b614d258161554d565b82525050565b6000614d3682614b8c565b9150819050919050565b6000602082019050614d5560008301846147e3565b92915050565b6000602082019050614d7060008301846147d4565b92915050565b6000606082019050614d8b60008301866147e3565b614d9860208301856147c5565b614da56040830184614d0d565b949350505050565b6000606082019050614dc260008301866147e3565b614dcf60208301856147e3565b614ddc6040830184614d0d565b949350505050565b6000604082019050614df960008301856147e3565b614e066020830184614d0d565b9392505050565b6000602082019050614e2260008301846147f2565b92915050565b6000602082019050614e3d6000830184614801565b92915050565b6000602082019050614e586000830184614810565b92915050565b6000602082019050614e73600083018461481f565b92915050565b60006020820190508181036000830152614e93818461482e565b905092915050565b60006020820190508181036000830152614eb481614867565b9050919050565b60006020820190508181036000830152614ed48161488a565b9050919050565b60006020820190508181036000830152614ef4816148ad565b9050919050565b60006020820190508181036000830152614f14816148d0565b9050919050565b60006020820190508181036000830152614f34816148f3565b9050919050565b60006020820190508181036000830152614f5481614916565b9050919050565b60006020820190508181036000830152614f7481614939565b9050919050565b60006020820190508181036000830152614f948161495c565b9050919050565b60006020820190508181036000830152614fb48161497f565b9050919050565b60006020820190508181036000830152614fd4816149a2565b9050919050565b60006020820190508181036000830152614ff4816149c5565b9050919050565b60006020820190508181036000830152615014816149e8565b9050919050565b6000602082019050818103600083015261503481614a0b565b9050919050565b6000602082019050818103600083015261505481614a2e565b9050919050565b6000602082019050818103600083015261507481614a51565b9050919050565b6000602082019050818103600083015261509481614a74565b9050919050565b600060208201905081810360008301526150b481614a97565b9050919050565b600060208201905081810360008301526150d481614aba565b9050919050565b600060208201905081810360008301526150f481614add565b9050919050565b6000602082019050818103600083015261511481614b00565b9050919050565b6000602082019050818103600083015261513481614b23565b9050919050565b6000602082019050818103600083015261515481614b46565b9050919050565b6000602082019050818103600083015261517481614b69565b9050919050565b6000602082019050818103600083015261519481614baf565b9050919050565b600060208201905081810360008301526151b481614bd2565b9050919050565b600060208201905081810360008301526151d481614bf5565b9050919050565b600060208201905081810360008301526151f481614c18565b9050919050565b6000602082019050818103600083015261521481614c3b565b9050919050565b6000602082019050818103600083015261523481614c5e565b9050919050565b6000602082019050818103600083015261525481614c81565b9050919050565b6000602082019050818103600083015261527481614ca4565b9050919050565b6000602082019050818103600083015261529481614cc7565b9050919050565b600060208201905081810360008301526152b481614cea565b9050919050565b60006020820190506152d06000830184614d0d565b92915050565b60006020820190506152eb6000830184614d1c565b92915050565b60006152fb61530c565b90506153078282615628565b919050565b6000604051905090565b600067ffffffffffffffff82111561533157615330615715565b5b61533a82615744565b9050602081019050919050565b600067ffffffffffffffff82111561536257615361615715565b5b61536b82615744565b9050602081019050919050565b600081519050919050565b600081905092915050565b600082825260208201905092915050565b60006153aa82615543565b91506153b583615543565b9250827fffffffffffffffffffffffffffffffffffffffffffffffffffffffffffffffff038211156153ea576153e9615659565b5b828201905092915050565b600061540082615543565b915061540b83615543565b92508261541b5761541a615688565b5b828204905092915050565b600061543182615543565b915061543c83615543565b9250817fffffffffffffffffffffffffffffffffffffffffffffffffffffffffffffffff048311821515161561547557615474615659565b5b828202905092915050565b600061548b82615543565b915061549683615543565b9250828210156154a9576154a8615659565b5b828203905092915050565b60006154bf82615523565b9050919050565b60006154d182615523565b9050919050565b60008115159050919050565b60007fffffffff0000000000000000000000000000000000000000000000000000000082169050919050565b600081905061551e82615e8f565b919050565b600073ffffffffffffffffffffffffffffffffffffffff82169050919050565b6000819050919050565b600060ff82169050919050565b600061556582615590565b9050919050565b600061557782615510565b9050919050565b600061558982615543565b9050919050565b600061559b826155a2565b9050919050565b60006155ad82615523565b9050919050565b82818337600083830152505050565b60005b838110156155e15780820151818401526020810190506155c6565b838111156155f0576000848401525b50505050565b6000600282049050600182168061560e57607f821691505b60208210811415615622576156216156e6565b5b50919050565b61563182615744565b810181811067ffffffffffffffff821117156156505761564f615715565b5b80604052505050565b7f4e487b7100000000000000000000000000000000000000000000000000000000600052601160045260246000fd5b7f4e487b7100000000000000000000000000000000000000000000000000000000600052601260045260246000fd5b7f4e487b7100000000000000000000000000000000000000000000000000000000600052602160045260246000fd5b7f4e487b7100000000000000000000000000000000000000000000000000000000600052602260045260246000fd5b7f4e487b7100000000000000000000000000000000000000000000000000000000600052604160045260246000fd5b6000601f19601f8301169050919050565b7f45524332303a207472616e7366657220746f20746865207a65726f206164647260008201527f6573730000000000000000000000000000000000000000000000000000000000602082015250565b7f73746172743a6e6f2061756374696f6e20737461727473000000000000000000600082015250565b7f7570646174653a7265736572766520707269636520746f6f206c6f7700000000600082015250565b7f45524332303a206275726e20616d6f756e7420657863656564732062616c616e60008201527f6365000000000000000000000000000000000000000000000000000000000000602082015250565b7f45524332303a20617070726f766520746f20746865207a65726f20616464726560008201527f7373000000000000000000000000000000000000000000000000000000000000602082015250565b7f6269643a61756374696f6e206973206e6f74206c697665000000000000000000600082015250565b7f636173683a6e6f20746f6b656e7320746f2063617368206f7574000000000000600082015250565b7f7570646174653a63616e27742072616973650000000000000000000000000000600082015250565b7f72656465656d3a6e6f2072656465656d696e6700000000000000000000000000600082015250565b7f6b69636b3a6e6f7420676f760000000000000000000000000000000000000000600082015250565b7f45524332303a207472616e7366657220616d6f756e742065786365656473206260008201527f616c616e63650000000000000000000000000000000000000000000000000000602082015250565b7f73746172743a746f6f206c6f7720626964000000000000000000000000000000600082015250565b7f656e643a61756374696f6e206c69766500000000000000000000000000000000600082015250565b7f73746172743a6e6f7420656e6f75676820766f74657273000000000000000000600082015250565b7f7570646174653a6e6f742063757261746f720000000000000000000000000000600082015250565b7f496e697469616c697a61626c653a20636f6e747261637420697320616c72656160008201527f647920696e697469616c697a6564000000000000000000000000000000000000602082015250565b7f7570646174653a696e76616c69642061756374696f6e206c656e677468000000600082015250565b7f45524332303a207472616e7366657220616d6f756e742065786365656473206160008201527f6c6c6f77616e6365000000000000000000000000000000000000000000000000602082015250565b7f6269643a61756374696f6e20656e646564000000000000000000000000000000600082015250565b7f7570646174653a63616e6e6f7420696e6372656173652066656520746869732060008201527f6869676800000000000000000000000000000000000000000000000000000000602082015250565b7f45524332303a206275726e2066726f6d20746865207a65726f2061646472657360008201527f7300000000000000000000000000000000000000000000000000000000000000602082015250565b7f45524332303a207472616e736665722066726f6d20746865207a65726f20616460008201527f6472657373000000000000000000000000000000000000000000000000000000602082015250565b7f72656d6f76653a6e6f7420676f76000000000000000000000000000000000000600082015250565b50565b7f45524332303a20617070726f76652066726f6d20746865207a65726f2061646460008201527f7265737300000000000000000000000000000000000000000000000000000000602082015250565b7f656e643a7661756c742068617320616c726561647920636c6f73656400000000600082015250565b7f636c61696d3a63616e6e6f7420636c61696d2061667465722061756374696f6e60008201527f20656e6473000000000000000000000000000000000000000000000000000000602082015250565b7f6269643a746f6f206c6f77206269640000000000000000000000000000000000600082015250565b7f7570646174653a7265736572766520707269636520746f6f2068696768000000600082015250565b7f7570646174653a61756374696f6e206c6976652063616e6e6f7420757064617460008201527f6520707269636500000000000000000000000000000000000000000000000000602082015250565b7f7570646174653a6e6f7420616e20757064617465000000000000000000000000600082015250565b7f45524332303a2064656372656173656420616c6c6f77616e63652062656c6f7760008201527f207a65726f000000000000000000000000000000000000000000000000000000602082015250565b7f45524332303a206d696e7420746f20746865207a65726f206164647265737300600082015250565b7f636173683a7661756c74206e6f7420636c6f7365642079657400000000000000600082015250565b60048110615ea057615e9f6156b7565b5b50565b615eac816154b4565b8114615eb757600080fd5b50565b615ec3816154c6565b8114615ece57600080fd5b50565b615eda816154d8565b8114615ee557600080fd5b50565b615ef181615543565b8114615efc57600080fd5b5056fea2646970667358221220a5fd70f66e1b9bd1ae430aa6107cb92187123be16c312e4acce92ba21382757364736f6c63430008040033",
  "linkReferences": {},
  "deployedLinkReferences": {}
}